:020000020000FC
:1000000004E00EBF0FE50DBF0C941900535341459A
:1000100020535341452000006088A8904028D00814
:100020002078B048E0A0F068D85010C03018709820
:10003000B8C801E007BB0E941E00FDCFF0E0ECE075
:100040000591003049F00032F9F00E942D000E9425
:100050004D000E944D00F4CF08950E945300000F00
:1000600059F010F01AE001C01EE10E943D001A95FF
:10007000E1F70E944D00F3CF0895C09A0E945E0000
:10008000C0980E945E0008950E944D000E944D009D
:100090000E944D000E944D00D3CF1CE10E945E00E3
:1000A0001A95E1F708950054FF93EF93F0E0E8E12B
:1000B000E00FEA950491EF91FF9108952F931F931C
:1000C0002CE11CE11A95F1F72A95D9F71F912F9190
:0200D000089591
:00000001FF
