:020000020000FC
:0C0000000C942F000C9444000C94680039
:10005400FC60DAF266B6BEE0FEE60FEF07BB03E033
:100064000ABB04E00EBF0FE50DBFB0E0A0E6002719
:100074000D930D930D930D930FE005BF00EC0BBF93
:100084007894FFCF0F930FB70F931F932F93BF93C2
:10009400AF9310E0143091F0B0E0A0E6A10F0C9102
:1000A40021E0212311F4093001C0053019F0039532
:1000B4000C9304C000E00C931395ECCFAF91BF9167
:1000C4002F911F910F910FBF0F9118950F930FB799
:1000D4000F933F93BF93AF93FF93EF9330916400DB
:1000E400B0E0A0E63370A30F0C91F0E0E4E5E00F7C
:1000F400049108BB3BBB339530936400EF91FF91AF
:0E010400AF91BF913F910F910FBF0F911895D2
:00000001FF
