:020000020000FC
:100000000C9404000C942D0004E00EBF0FE50DBF0E
:100010000E94B9000E94C5000E9451000E94EF009A
:100020000E949F0006E40E9404010A95E1F7B0E0F7
:10003000A0E60C9112961C91011769F4B0E0A0E6BD
:10004000A3950C9112961C91011729F404E60E94C5
:10005000F8000E94C5000C940C000F930FB70F938B
:10006000BF93AF93002708BBB0E0A5E60091640002
:10007000A00F0295000F02BB0C9108BB0091640019
:100080000395053009F400E00093640000916A00D4
:10009000039500936A00AF91BF910F910FBF0F912D
:1000A000189500E001C001E007B9369A3699FECFF5
:1000B00004B115B1389B0E94650038990E94770001
:1000C000389BF1CF0E9489000895123040F0003A29
:1000D00030F02091600023952093600007C011301C
:1000E00028F4209160002A95209360000895133031
:1000F00040F0043630F02091610023952093610098
:1001000007C0113028F4209161002A9520936100E6
:1001100008950091600017E00E949800009360002D
:100120000091610015E00E9498000093610008951D
:1001300000601AF0011711F4025003950895FF278B
:10014000E0E60E94A800FF27E2E60E94A8000895CA
:1001500011910E94B2001081E5E6E10F1081102B91
:100160001083089501E01A951AF0000F0C94B30063
:1001700008950FEF07BB00EF01BB03E806B903E0EA
:1001800005BF00E40BBF7894089500E00093600081
:1001900002E0009361000F920F920E94D8000F912D
:1001A000009362000F91009363000E94EF00089596
:1001B0000EB7F02F0DB7E02F00916A0007700230E4
:1001C00010F403950395073008F004500383009161
:1001D0006A000770053008F0045004830895B0E009
:1001E000A5E615E01A0F00E00D93A117E9F70895B1
:1001F00004E6949A10E81A95F1F7949810E81A9585
:10020000F1F70A95B1F708950F931F9302E112E1F8
:0E0210001A95F1F70A95D9F71F910F910895ED
:00000001FF
